{
  "_format": "hh-sol-artifact-1",
  "contractName": "AutoMintInvoice",
  "sourceName": "contracts/AutoMintInvoice.sol",
  "abi": [
    {
      "inputs": [],
      "stateMutability": "nonpayable",
      "type": "constructor"
    },
    {
      "inputs": [
        {
          "internalType": "address",
          "name": "owner",
          "type": "address"
        }
      ],
      "name": "OwnableInvalidOwner",
      "type": "error"
    },
    {
      "inputs": [
        {
          "internalType": "address",
          "name": "account",
          "type": "address"
        }
      ],
      "name": "OwnableUnauthorizedAccount",
      "type": "error"
    },
    {
      "inputs": [],
      "name": "ReentrancyGuardReentrantCall",
      "type": "error"
    },
    {
      "anonymous": false,
      "inputs": [
        {
          "indexed": true,
          "internalType": "uint256",
          "name": "invoiceId",
          "type": "uint256"
        },
        {
          "indexed": true,
          "internalType": "address",
          "name": "merchant",
          "type": "address"
        },
        {
          "indexed": false,
          "internalType": "uint256",
          "name": "amount",
          "type": "uint256"
        }
      ],
      "name": "FundsWithdrawn",
      "type": "event"
    },
    {
      "anonymous": false,
      "inputs": [
        {
          "indexed": true,
          "internalType": "uint256",
          "name": "invoiceId",
          "type": "uint256"
        },
        {
          "indexed": true,
          "internalType": "address",
          "name": "merchant",
          "type": "address"
        },
        {
          "indexed": false,
          "internalType": "uint256",
          "name": "amount",
          "type": "uint256"
        },
        {
          "indexed": false,
          "internalType": "string",
          "name": "metadataURI",
          "type": "string"
        },
        {
          "indexed": false,
          "internalType": "address",
          "name": "allowedPayer",
          "type": "address"
        }
      ],
      "name": "InvoiceCreated",
      "type": "event"
    },
    {
      "anonymous": false,
      "inputs": [
        {
          "indexed": true,
          "internalType": "uint256",
          "name": "invoiceId",
          "type": "uint256"
        },
        {
          "indexed": true,
          "internalType": "address",
          "name": "payer",
          "type": "address"
        },
        {
          "indexed": false,
          "internalType": "uint256",
          "name": "amount",
          "type": "uint256"
        },
        {
          "indexed": false,
          "internalType": "uint256",
          "name": "platformFee",
          "type": "uint256"
        }
      ],
      "name": "InvoicePaid",
      "type": "event"
    },
    {
      "anonymous": false,
      "inputs": [
        {
          "indexed": true,
          "internalType": "address",
          "name": "previousOwner",
          "type": "address"
        },
        {
          "indexed": true,
          "internalType": "address",
          "name": "newOwner",
          "type": "address"
        }
      ],
      "name": "OwnershipTransferred",
      "type": "event"
    },
    {
      "anonymous": false,
      "inputs": [
        {
          "indexed": true,
          "internalType": "address",
          "name": "owner",
          "type": "address"
        },
        {
          "indexed": false,
          "internalType": "uint256",
          "name": "amount",
          "type": "uint256"
        }
      ],
      "name": "PlatformFeesWithdrawn",
      "type": "event"
    },
    {
      "inputs": [],
      "name": "BASIS_POINTS",
      "outputs": [
        {
          "internalType": "uint256",
          "name": "",
          "type": "uint256"
        }
      ],
      "stateMutability": "view",
      "type": "function"
    },
    {
      "inputs": [],
      "name": "PLATFORM_FEE_BPS",
      "outputs": [
        {
          "internalType": "uint256",
          "name": "",
          "type": "uint256"
        }
      ],
      "stateMutability": "view",
      "type": "function"
    },
    {
      "inputs": [],
      "name": "accumulatedFees",
      "outputs": [
        {
          "internalType": "uint256",
          "name": "",
          "type": "uint256"
        }
      ],
      "stateMutability": "view",
      "type": "function"
    },
    {
      "inputs": [
        {
          "internalType": "uint256",
          "name": "amount",
          "type": "uint256"
        },
        {
          "internalType": "string",
          "name": "metadataURI",
          "type": "string"
        },
        {
          "internalType": "address",
          "name": "allowedPayer",
          "type": "address"
        }
      ],
      "name": "createInvoice",
      "outputs": [
        {
          "internalType": "uint256",
          "name": "invoiceId",
          "type": "uint256"
        }
      ],
      "stateMutability": "nonpayable",
      "type": "function"
    },
    {
      "inputs": [],
      "name": "getCurrentInvoiceId",
      "outputs": [
        {
          "internalType": "uint256",
          "name": "",
          "type": "uint256"
        }
      ],
      "stateMutability": "view",
      "type": "function"
    },
    {
      "inputs": [
        {
          "internalType": "uint256",
          "name": "invoiceId",
          "type": "uint256"
        }
      ],
      "name": "getInvoice",
      "outputs": [
        {
          "components": [
            {
              "internalType": "uint256",
              "name": "id",
              "type": "uint256"
            },
            {
              "internalType": "address",
              "name": "merchant",
              "type": "address"
            },
            {
              "internalType": "uint256",
              "name": "amount",
              "type": "uint256"
            },
            {
              "internalType": "string",
              "name": "metadataURI",
              "type": "string"
            },
            {
              "internalType": "address",
              "name": "allowedPayer",
              "type": "address"
            },
            {
              "internalType": "bool",
              "name": "isPaid",
              "type": "bool"
            },
            {
              "internalType": "uint256",
              "name": "createdAt",
              "type": "uint256"
            },
            {
              "internalType": "uint256",
              "name": "paidAt",
              "type": "uint256"
            }
          ],
          "internalType": "struct AutoMintInvoice.Invoice",
          "name": "",
          "type": "tuple"
        }
      ],
      "stateMutability": "view",
      "type": "function"
    },
    {
      "inputs": [
        {
          "internalType": "uint256",
          "name": "invoiceId",
          "type": "uint256"
        }
      ],
      "name": "invoiceExists",
      "outputs": [
        {
          "internalType": "bool",
          "name": "",
          "type": "bool"
        }
      ],
      "stateMutability": "view",
      "type": "function"
    },
    {
      "inputs": [
        {
          "internalType": "uint256",
          "name": "",
          "type": "uint256"
        }
      ],
      "name": "invoices",
      "outputs": [
        {
          "internalType": "uint256",
          "name": "id",
          "type": "uint256"
        },
        {
          "internalType": "address",
          "name": "merchant",
          "type": "address"
        },
        {
          "internalType": "uint256",
          "name": "amount",
          "type": "uint256"
        },
        {
          "internalType": "string",
          "name": "metadataURI",
          "type": "string"
        },
        {
          "internalType": "address",
          "name": "allowedPayer",
          "type": "address"
        },
        {
          "internalType": "bool",
          "name": "isPaid",
          "type": "bool"
        },
        {
          "internalType": "uint256",
          "name": "createdAt",
          "type": "uint256"
        },
        {
          "internalType": "uint256",
          "name": "paidAt",
          "type": "uint256"
        }
      ],
      "stateMutability": "view",
      "type": "function"
    },
    {
      "inputs": [],
      "name": "nextInvoiceId",
      "outputs": [
        {
          "internalType": "uint256",
          "name": "",
          "type": "uint256"
        }
      ],
      "stateMutability": "view",
      "type": "function"
    },
    {
      "inputs": [],
      "name": "owner",
      "outputs": [
        {
          "internalType": "address",
          "name": "",
          "type": "address"
        }
      ],
      "stateMutability": "view",
      "type": "function"
    },
    {
      "inputs": [
        {
          "internalType": "uint256",
          "name": "invoiceId",
          "type": "uint256"
        }
      ],
      "name": "payInvoice",
      "outputs": [],
      "stateMutability": "payable",
      "type": "function"
    },
    {
      "inputs": [],
      "name": "renounceOwnership",
      "outputs": [],
      "stateMutability": "nonpayable",
      "type": "function"
    },
    {
      "inputs": [
        {
          "internalType": "address",
          "name": "newOwner",
          "type": "address"
        }
      ],
      "name": "transferOwnership",
      "outputs": [],
      "stateMutability": "nonpayable",
      "type": "function"
    },
    {
      "inputs": [
        {
          "internalType": "uint256",
          "name": "invoiceId",
          "type": "uint256"
        }
      ],
      "name": "withdrawInvoiceFunds",
      "outputs": [],
      "stateMutability": "nonpayable",
      "type": "function"
    },
    {
      "inputs": [],
      "name": "withdrawPlatformFees",
      "outputs": [],
      "stateMutability": "nonpayable",
      "type": "function"
    }
  ],
  "bytecode": "0x6080604052600160025534801561001557600080fd5b50338061003c57604051631e4fbdf760e01b81526000600482015260240160405180910390fd5b6100458161004f565b506001805561009f565b600080546001600160a01b038381166001600160a01b0319831681178455604051919092169283917f8be0079c531659141344cd1fd0a4f28419497f9722a3daafe3b4186f6b6457e09190a35050565b6112d6806100ae6000396000f3fe6080604052600436106100e85760003560e01c80636ff2a9531161008a578063ac60a6cd11610059578063ac60a6cd14610271578063d0b7830b14610284578063e1f1c4a714610299578063f2fde38b146102af57600080fd5b80636ff2a953146101fc578063715018a6146102125780638da5cb5b14610229578063997e2d3a1461025157600080fd5b80634e6d1405116100c65780634e6d14051461017d578063539aa77f146101b1578063587f5ed7146101c6578063615a7246146101dc57600080fd5b8063143d9b33146100ed57806315539816146101315780633a23cc0a14610150575b600080fd5b3480156100f957600080fd5b5061011c610108366004610e25565b600090815260036020526040902054151590565b60405190151581526020015b60405180910390f35b34801561013d57600080fd5b506002545b604051908152602001610128565b34801561015c57600080fd5b5061017061016b366004610e25565b6102cf565b6040516101289190610e84565b34801561018957600080fd5b5061019d610198366004610e25565b61047a565b604051610128989796959493929190610f0f565b3480156101bd57600080fd5b50610142606481565b3480156101d257600080fd5b5061014260045481565b3480156101e857600080fd5b506101426101f7366004610f85565b610560565b34801561020857600080fd5b5061014260025481565b34801561021e57600080fd5b5061022761077a565b005b34801561023557600080fd5b506000546040516001600160a01b039091168152602001610128565b34801561025d57600080fd5b5061022761026c366004610e25565b61078e565b61022761027f366004610e25565b610a00565b34801561029057600080fd5b50610227610bfa565b3480156102a557600080fd5b5061014261271081565b3480156102bb57600080fd5b506102276102ca366004611012565b610d43565b61032b6040518061010001604052806000815260200160006001600160a01b03168152602001600081526020016060815260200160006001600160a01b0316815260200160001515815260200160008152602001600081525090565b60008281526003602052604081205490036103615760405162461bcd60e51b815260040161035890611034565b60405180910390fd5b6000828152600360208181526040928390208351610100810185528154815260018201546001600160a01b03169281019290925260028101549382019390935290820180549192916060840191906103b890611064565b80601f01602080910402602001604051908101604052809291908181526020018280546103e490611064565b80156104315780601f1061040657610100808354040283529160200191610431565b820191906000526020600020905b81548152906001019060200180831161041457829003601f168201915b505050918352505060048201546001600160a01b0381166020830152600160a01b900460ff16151560408201526005820154606082015260069091015460809091015292915050565b6003602081905260009182526040909120805460018201546002830154938301805492946001600160a01b039092169391926104b590611064565b80601f01602080910402602001604051908101604052809291908181526020018280546104e190611064565b801561052e5780601f106105035761010080835404028352916020019161052e565b820191906000526020600020905b81548152906001019060200180831161051157829003601f168201915b505050506004830154600584015460069094015492936001600160a01b03821693600160a01b90920460ff1692509088565b60008085116105b15760405162461bcd60e51b815260206004820152601d60248201527f416d6f756e74206d7573742062652067726561746572207468616e20300000006044820152606401610358565b826105f65760405162461bcd60e51b815260206004820152601560248201527413595d1859185d1848155492481c995c5d5a5c9959605a1b6044820152606401610358565b60028054906000610606836110b4565b919050559050604051806101000160405280828152602001336001600160a01b0316815260200186815260200185858080601f01602080910402602001604051908101604052809392919081815260200183838082843760009201829052509385525050506001600160a01b03858116602080850191909152604080850184905242606080870191909152608090950184905286845260038083529381902086518155918601516001830180546001600160a01b031916919094161790925590840151600282015591830151908201906106e09082611132565b50608082015160048201805460a08501511515600160a01b026001600160a81b03199091166001600160a01b039093169290921791909117905560c0820151600582015560e090910151600690910155604051339082907f6f19ee7db46d0fdf3a3c5efc71d522039310897404f6ca7c730454bd995897679061076a9089908990899089906111f2565b60405180910390a3949350505050565b610782610d7e565b61078c6000610dab565b565b610796610dfb565b600081815260036020526040812080549091036107c55760405162461bcd60e51b815260040161035890611034565b6004810154600160a01b900460ff166108175760405162461bcd60e51b8152602060048201526014602482015273125b9d9bda58d9481b9bdd081c185a59081e595d60621b6044820152606401610358565b60018101546001600160a01b031633146108735760405162461bcd60e51b815260206004820152601a60248201527f4f6e6c79206d65726368616e742063616e2077697468647261770000000000006044820152606401610358565b600061271060648360020154610889919061123b565b6108939190611258565b905060008183600201546108a7919061127a565b905060008360020154116108fd5760405162461bcd60e51b815260206004820152601760248201527f46756e647320616c72656164792077697468647261776e0000000000000000006044820152606401610358565b60006002840181905560018401546040516001600160a01b039091169083908381818185875af1925050503d8060008114610954576040519150601f19603f3d011682016040523d82523d6000602084013e610959565b606091505b50509050806109aa5760405162461bcd60e51b815260206004820152601b60248201527f5472616e7366657220746f206d65726368616e74206661696c656400000000006044820152606401610358565b60018401546040518381526001600160a01b039091169086907ff440aec6b52895984d061d622e6edeba6210f7c3e059be920663140c084560d79060200160405180910390a3505050506109fd60018055565b50565b610a08610dfb565b60008181526003602052604081208054909103610a375760405162461bcd60e51b815260040161035890611034565b6004810154600160a01b900460ff1615610a8a5760405162461bcd60e51b8152602060048201526014602482015273125b9d9bda58d948185b1c9958591e481c185a5960621b6044820152606401610358565b80600201543414610add5760405162461bcd60e51b815260206004820152601860248201527f496e636f7272656374207061796d656e7420616d6f756e7400000000000000006044820152606401610358565b60048101546001600160a01b031615610b575760048101546001600160a01b03163314610b575760405162461bcd60e51b815260206004820152602260248201527f4e6f7420617574686f72697a656420746f20706179207468697320696e766f69604482015261636560f01b6064820152608401610358565b600061271060648360020154610b6d919061123b565b610b779190611258565b6004808401805460ff60a01b1916600160a01b17905542600685015580549192508291600090610ba890849061128d565b909155505060028201546040805191825260208201839052339185917fad182a582b60dfb698b15ddbe85c01fe3d9c2161ef730aa75fbc0688d7a0ec3d910160405180910390a350506109fd60018055565b610c02610d7e565b610c0a610dfb565b60045480610c505760405162461bcd60e51b81526020600482015260136024820152724e6f206665657320746f20776974686472617760681b6044820152606401610358565b6000600481905580546040516001600160a01b039091169083908381818185875af1925050503d8060008114610ca2576040519150601f19603f3d011682016040523d82523d6000602084013e610ca7565b606091505b5050905080610cea5760405162461bcd60e51b815260206004820152600f60248201526e151c985b9cd9995c8819985a5b1959608a1b6044820152606401610358565b6000546001600160a01b03166001600160a01b03167ffc7ad544ff6a06d6499925723d25b6fe70457a42939995b1d3d6f560fe33633383604051610d3091815260200190565b60405180910390a2505061078c60018055565b610d4b610d7e565b6001600160a01b038116610d7557604051631e4fbdf760e01b815260006004820152602401610358565b6109fd81610dab565b6000546001600160a01b0316331461078c5760405163118cdaa760e01b8152336004820152602401610358565b600080546001600160a01b038381166001600160a01b0319831681178455604051919092169283917f8be0079c531659141344cd1fd0a4f28419497f9722a3daafe3b4186f6b6457e09190a35050565b600260015403610e1e57604051633ee5aeb560e01b815260040160405180910390fd5b6002600155565b600060208284031215610e3757600080fd5b5035919050565b6000815180845260005b81811015610e6457602081850181015186830182015201610e48565b506000602082860101526020601f19601f83011685010191505092915050565b60208152815160208201526000602083015160018060a01b0380821660408501526040850151606085015260608501519150610100806080860152610ecd610120860184610e3e565b92508160808701511660a086015260a08601519150610ef060c086018315159052565b60c086015160e086015260e08601518186015250508091505092915050565b8881526001600160a01b0388811660208301526040820188905261010060608301819052600091610f428483018a610e3e565b97166080840152505092151560a084015260c083019190915260e090910152949350505050565b80356001600160a01b0381168114610f8057600080fd5b919050565b60008060008060608587031215610f9b57600080fd5b84359350602085013567ffffffffffffffff80821115610fba57600080fd5b818701915087601f830112610fce57600080fd5b813581811115610fdd57600080fd5b886020828501011115610fef57600080fd5b60208301955080945050505061100760408601610f69565b905092959194509250565b60006020828403121561102457600080fd5b61102d82610f69565b9392505050565b602080825260169082015275125b9d9bda58d948191bd95cc81b9bdd08195e1a5cdd60521b604082015260600190565b600181811c9082168061107857607f821691505b60208210810361109857634e487b7160e01b600052602260045260246000fd5b50919050565b634e487b7160e01b600052601160045260246000fd5b6000600182016110c6576110c661109e565b5060010190565b634e487b7160e01b600052604160045260246000fd5b601f82111561112d57600081815260208120601f850160051c8101602086101561110a5750805b601f850160051c820191505b8181101561112957828155600101611116565b5050505b505050565b815167ffffffffffffffff81111561114c5761114c6110cd565b6111608161115a8454611064565b846110e3565b602080601f831160018114611195576000841561117d5750858301515b600019600386901b1c1916600185901b178555611129565b600085815260208120601f198616915b828110156111c4578886015182559484019460019091019084016111a5565b50858210156111e25787850151600019600388901b60f8161c191681555b5050505050600190811b01905550565b848152606060208201528260608201528284608083013760008184016080908101919091526001600160a01b03929092166040820152601f909201601f19169091010192915050565b80820281158282048414176112525761125261109e565b92915050565b60008261127557634e487b7160e01b600052601260045260246000fd5b500490565b818103818111156112525761125261109e565b808201808211156112525761125261109e56fea2646970667358221220351ccfc07c21fde20d4bc55bcd3833ebc7936820e931bf205ccfd288ad1f66bd64736f6c63430008140033",
  "linkReferences": {},
  "deployedLinkReferences": {}
}